:100000008DC10000A8C10000A6C10000A4C100006D
:10001000A2C10000A0C100009EC100009CC1000060
:100020009AC1000098C100000C94791A0C94451BE9
:100030000C94E81590C100008EC100008CC1000036
:100040008AC1000088C1000086C1000084C1000090
:1000500082C100000C9461167EC100007CC10000CA
:100060007AC1000078C1000076C1000074C10000B0
:1000700072C1000070C100006EC100006CC10000C0
:100080006AC1000068C1000066C1000064C10000D0
:1000900062C1000060C100005EC100005CC10000E0
:1000A0005AC1000058C1000056C1000014001A00D7
:1000B0000800150017001C0018000C0012001300A7
:1000C00004001600070009000A000B000D000E00D6
:1000D0000F0033001D001B00060019000500110071
:1000E0001000360037003800E000E2003500310033
:1000F0002B0000002A00000034002E0021520000D6
:10010000E10000002C00000028000000225229001D
:100110001E001F00200021002200230024002500D3
:10012000260027000100010001000100010050002D
:10013000510052004F004C0001000100010001007D
:1001400001004A004E004B004D0049000100010033
:1001500001000100010000004C0000002F003000F1
:10016000010001000100000001000000010000008A
:10017000010001003A003B003C003D003E003F0012
:1001800040004100420043004400450001000100DE
:100190000100AC00AA00A900AB00A800010001000A
:1001A000010001000100AD00AE00A8000100010047
:1001B0000100010001000100010000000100000039
:1001C0002D002E02010001000100000001000000CE
:1001D000010000000100007C12034E006F0073005C
:1001E000740072006F006D006F0000001E03770046
:1001F000650079006C0061006E0064002D007900DC
:100200007500740061006E006900000004030904B9
:1002100009023B00020100A0FA09040000010301E9
:100220000100092111010001224400070581030892
:10023000000109040100010300000009211101006F
:1002400001227B0007058203200001120100020049
:10025000000008EDFE010001000102000105010996
:1002600002A10185020901A100050919012908154A
:100270000025019508750181020501093009311534
:1002800081257F95027508810609381581257F959E
:100290000175088106050C0A38021581257F950134
:1002A00075088106C0C005010980A10185031901F7
:1002B0002AB700150126B700950175108100C00509
:1002C0000C0901A101850419012AA002150126A02B
:1002D00002950175108100C005010906A1010507FD
:1002E00019E029E71500250195087501810295019E
:1002F000750881010507190029FF150026FF0095E3
:1003000006750881000508190129051500250195C4
:100310000575019102950175039101C011241FBE5D
:10032000CFEFDAE0DEBFCDBF11E0A0E0B1E0E0E367
:10033000FBE302C005900D92AA39B107D9F722E07C
:10034000AAE9B1E001C01D92A737B207E1F70E9408
:10035000E10F0C94961D54CE8330B8F46530A8F4A8
:100360004A3098F4E42FF0E09AE0699FE00DF11D27
:10037000112492E3899FE00DF11D1124EE0FFF1F60
:10038000E455FF4F85919491089581E090E00895A0
:10039000E3CF089581E00895FDCF0895FBCF089540
:1003A000F9CF0895F7CF0895FDCF089508950895E2
:1003B000FDCF089508950895A6E0B0E0E2EEF1E0E3
:1003C0000C94091D49835A839E833091A101898130
:1003D0009A81311117C03E81332389F0222379F0AD
:1003E00013D5182F682F89819A81EDD469817A817C
:1003F000812F0E94040D2696E3E00C94251DF4D471
:10040000182FF4CF01D569817A81F3CFFC01262F13
:10041000408151816281738184819581CDCFCF9359
:10042000DF93EC0161E0F2DFBE01B6DF882349F023
:1004300061E0CE01EBDFBE01B1DF8170DF91CF91D2
:10044000089580E0FACF0F931F93CF93DF93EC01D1
:1004500060E0DCDF8C01BE01AADFBE01C801A8DFBD
:10046000DF91CF911F910F9108950F931F93CF9319
:10047000DF93EC0161E0CADF8C01BE0191DF8111E5
:1004800006C080E0DF91CF911F910F910895BE01CA
:10049000C8018ADF8823A9F3BE01C8010E9409149C
:1004A000882379F3BE01C8010E943310882349F3E1
:1004B000BE01C8010E940D10882319F3BE01C801B6
:1004C0000E94060E8823E9F2BE01C8010E94180EA0
:1004D0008823B9F2BE01C8010E94310ED3CF21E0BA
:1004E00030E0A90102C0440F551F8A95E2F7CA0106
:1004F000A3C3CF93C82F81E090E00C2E02C0880FD9
:10050000991F0A94E2F70E94110B8C2FE8DFCF911C
:10051000089581E00895FDCF0895FBCF0895CF930E
:10052000C82F43D38C2FF7DF8C2FF7DF2FEF84E317
:100530009CE0215080409040E1F700C00000CF9146
:10054000089581E0ECDF0C94871680E0E8DF0C94DE
:10055000981630DF0E94C11517C018D02CDF0C94FC
:10056000C51581E008950895CF93DF93D82FF9DF63
:10057000C82F882311F08D2FF6DF8C2FDF91CF91BC
:1005800008950895F1CF089580E0FCCF0E9458149B
:10059000F9CFCF930E945814C82F80919C018C17DB
:1005A00071F0C0939C010E94551660939D01709359
:1005B0009E0180939F019093A0018C2FE3DFCF9148
:1005C0000895ADE0B0E0E7EEF2E00C940A1D488734
:1005D00059876A877B878C879D87911138D71F82BF
:1005E00086E0FE013896DE01119601900D928A9503
:1005F000E1F78D8181110CC029813A814B815C81A9
:100600006D817E818F8171D62D96E2E00C94261D3E
:10061000CE01019604DF8111EFCFF6CFFC012481DA
:10062000213019F48081918120C40895662321F03E
:100630000E94B2110C9480120E940412FBCFCF933F
:10064000882391F0C82F8CEF8C0F813A78F48C2F8F
:100650000E94E314882321F08C2F0E9424155FD779
:100660008C2F0E941E155BD7CF91089580E28C0FCE
:10067000883040F4C77081E001C0880FCA95EAF75E
:10068000C7D6F1CFEBE5EC0FE33040F4F0E0E25BEE
:10069000FE4F808190E00E948614E6CFE8E5EC0FE3
:1006A000EB3150F4F0E0EE0FFF1FE85EFE4F80816B
:1006B00091810E94AD14D8CF83E38C0F8331A0F6D3
:1006C00061E08C2FB3DFD0CF882351F19CEF980FDE
:1006D000913A18F40E94241522C790E2980F98309E
:1006E00048F4877091E001C0990F8A95EAF7892F45
:1006F00095D6F2CF9BE5980F933020F490E080E000
:100700000C94861498E5980F9B3120F490E080E0DB
:100710000C94AD1493E3980F933110F460E086CFFE
:1007200008951F93CF93DF93182FEB0188DF209755
:1007300031F4812FC9DFDF91CF911F9108958FE9A7
:100740009FE00197F1F700C000002197F0CF70E023
:1007500060E0893311F460E570E0E3CF882311F0A5
:1007600057D6DDC60895882311F058D6D8C6089507
:10077000B0E0A0E0EEEBF3E00C94041D6C01D62F8A
:10078000C72FFC011581068102950F7037D6E82E20
:100790008823E9F0E12E1123D1F08C2F807F803463
:1007A00061F080E28D0F883060F18C2F807E803286
:1007B00021F4D23030F1002321F18091510282FFE7
:1007C00020C082E0C8D61AD691E0E82EE926FC2E99
:1007D000F2949FE0F922FBE0FF1508F43CC0EF2DF6
:1007E000F0E0EB50FC4F0C94F41C030403043A04B7
:1007F0003A049304B4042B042B04B80427053405ED
:100800003405E12CE4CF0C2F0F70C07F11F002955E
:10081000007F112381F0002349F080E28D0F8830A2
:1008200010F0D11105C0802FF3D579D68D2F41C09E
:10083000802FFFD5FACF8D2F47DF002361F080E2B4
:100840008D0F883010F0D11103C0802FE7D502C082
:10085000802FF5D564D6EE2009F4B9C0CBD580FD44
:10086000B6C0F6011582C0D518D2C6016FD1BCD56D
:1008700022D2ADC02C2F2F70F22EC07FC03219F0C3
:10088000F29480EFF822DD2341F0D13081F1112381
:1008900009F439C00023C9F0C9CF8091510282FD0B
:1008A00010C0112341F0FF2019F08F2DB1D537D69C
:1008B00080E0C5DED0CF80E007DFFF2061F28F2D22
:1008C000C5CF112359F0011103C08F2D47DFC3CFCE
:1008D000013009F0C0CF8F2DCED5BDCF0111BBCFD8
:1008E0008F2D41DF8F2DD2D58F2DB7D5B4CF1123CA
:1008F00021F0063008F0AFCFE8CF053008F0ABCFDD
:100900008F2D31DFA8CF0023D9F3D93349F48FEFEE
:1009100097EEE3E081509040E040E1F700C0000036
:100920008D2FD2DE98CF8C2F86958695837041F0DF
:10093000813081F088EF8F0D843008F08CCF44C077
:100940008D2F9C2F9370111102C080E090E00E94C7
:10095000861481CF8D2F9C2F9370111102C080E0DF
:1009600090E00E94AD1477CF612F8D2F5FDE73CFA3
:100970008C2F8370B9F5111127C04D2F42954695E4
:100980004770440F440F2D2F2F7030E0042E02C00B
:10099000220F331F0A94E2F790E080E0D4FF09C0F1
:1009A0008FE090E002C0880F991F4A95E2F780958A
:1009B0009095822B932BC695C695C370C23071F06B
:1009C00078F4C13049F041D10E945814DBDDCDB735
:1009D000DEB7E8E00C94201D31D1F6CF3DD1F4CF45
:1009E0002BD1F2CF8695112311F08C2F81708823A3
:1009F00059F34D2F429546954770440F440F2D2FC4
:100A00002F7030E0042E02C0220F331F0A94E2F749
:100A100090E080E0D4FF09C08FE090E002C0880F32
:100A2000991F4A95E2F780959095822B932BC69556
:100A3000C695C370C23039F040F4C13011F060D1B6
:100A4000C3CF57D1C1CF63D1BFCF13D1BDCFCF70EB
:100A5000112329F08C2F21D18D2F80DEB5CF8D2F42
:100A600082DE8C2F28D1B0CFD23F49F168F4D03F3D
:100A7000C9F0D13F89F0112309F441C0002309F4E2
:100A80003BC08D2FDCDD56CFD33FF9F0D43F99F733
:100A90008091510282FD21C08C2F8F71112399F01A
:100AA000FCD048CF112339F0053008F043CF8C2F0C
:100AB0008F7111D13FCF063008F03CCFF8CF8C2F8B
:100AC0008F71112369F3F7D035CF112321F08C2FCB
:100AD0008F71D9D02FCFD4D02DCF112329F063E03F
:100AE0008C2F8F7121D526CF81E035D5023008F4C7
:100AF00021CF82E030D51ECF8C2F8F71D1CF002334
:100B000071F0D93349F4FFEF27EE83E0F150204034
:100B10008040E1F700C000008D2FD6DD0BCF8C2F79
:100B20008F71D1CF0F931F93CF93DF93EC01688127
:100B300079818D81A3D18C01F1D07DD0B801CE0116
:100B400017DEDF91CF911F910F910895CF93DF931F
:100B5000FC012481222381F0EC0187DC81110FC08C
:100B60004DD4882349F08D81882331F08091510242
:100B700082FF02C082E0EFD4DF91CF910895CE01D1
:100B8000D1DFCE0160DCF8CF90E080E00E948614D7
:100B900090E080E00E94AD145AD4C1D40E949C120F
:100BA0000C9480120E942A15EFCF40D4FBCF92956F
:100BB0009F70963089F050F49250923058F4803FF4
:100BC00019F030F4883E30F481E008959A50F5CF62
:100BD000843FD1F380E00895883EB0F3813FD1F7A0
:100BE000F3CFFC012481222321F0808191813DD12A
:100BF000DECF80E00895A6E0B0E0E1E0F6E00C94FE
:100C00000A1D2696E2E00C94261DA7E0B0E0EBE07A
:100C1000F6E00C940A1D2796E2E00C94261D089538
:100C2000FECF0895FDCF0895FADFFCDF9093C10158
:100C30008093C00108950895F7CF08952091C001D1
:100C40003091C101822B932BEFCF2091C0013091C5
:100C5000C10182239323E8CF2091C0013091C101CB
:100C600082279327E1CFDBCF0895FDCF0895D7CF1B
:100C70000895FDDFFADF9093BF018093BE010895D0
:100C800090E080E0F6CF21E030E0A90102C0440FFF
:100C9000551F8A95E2F7CA01ECCF21E030E002C08F
:100CA000220F331F8A95E2F78091BE019091BF0118
:100CB000822B932BDECF21E030E002C0220F331FC6
:100CC0008A95E2F7209530958091BE019091BF0101
:100CD00082239323CECF21E030E002C0220F331FC6
:100CE0008A95E2F78091BE019091BF0182279327F8
:100CF000C0CF2091BE013091BF01822B932BB9CF81
:100D00002091BE013091BF0182239323B2CF209165
:100D1000BE013091BF0182279327ABCF0895262FC4
:100D2000277091E001C0990F2A95EAF723E07695A4
:100D300067952A95E1F7660F771F660F771FFA010F
:100D4000E60FF71F50E040E0682F70E08191DF016F
:100D500011979B01042E02C0369527950A94E2F75D
:100D6000217021952827292328272C934F5F5F4F37
:100D70004430510559F70895A82FA77023E09695A0
:100D800087952A95E1F7880F991F880F991FFB0116
:100D9000E80FF91F50E040E080E0219130E00A2E9A
:100DA00002C0369527950A94E2F721703327042E66
:100DB00001C0220F0A94EAF7822B4F5F5F4F443045
:100DC000510559F70895282F953068F48A3058F462
:100DD000862F622F70E02AE0929F600D711D112412
:100DE00042EA51E09CCF0895953060F48A3050F487
:100DF000292F90E062EA71E03AE0239F800D911D77
:100E00001124BACF80E00895B0E0A0E0EAE0F7E076
:100E10000C94031D7C010091BE011091BF018091D3
:100E2000C0019091C101082B192BCFE0D0E0CC2458
:100E3000C394D12CBC2EC6010C2E02C0880F991F62
:100E40000A94E2F780239123892B49F4219790F7A4
:100E5000B12C8B2DCDB7DEB7E9E00C941F1DB70187
:100E60008C2FDDD5019791F3F4CFCF93DF93EC0175
:100E7000CBDFBE01D4D5DF91CF9108951F93CF93DF
:100E8000DF93EB019091A101992331F0CB01EDDFCC
:100E9000DF91CF911F910895882351F0CB01B4DFEA
:100EA000182F682FCE018FDFBE01812FB8D5F0CF6C
:100EB000CB019ADF182FF8CF1F93CF93DF93C09108
:100EC000C20117E08091C3018C1304C0DF91CF9160
:100ED0001F910895D0E01C9FF0011D9FF00D11247B
:100EE000EC53FE4F208131814281538164817581B1
:100EF00086818BDE2196C770E5CF2091FC01309171
:100F0000FD014091FE015091FF016091000270913E
:100F100001028091020279CECF93DF938091020289
:100F2000807F09F04BC080910102882309F446C0FC
:100F3000E091C2015091C301C091FD01D091FC012B
:100F40006091FE017091FF0147E05E17B9F18E2FAD
:100F500090E0E49FF0011124EC53FE4F2481222302
:100F600081F1489FF001499FF00D1124DF01AC533E
:100F7000BE4F11962C9111972C1323C02C912D1339
:100F800020C015962C91159721111BC012962D91FA
:100F90003C91261B370B283C310598F480910202C6
:100FA0008F70806180930202E653FE4F80818F70C4
:100FB000806180838CEF91E0C9DD7EDFDF91CF918E
:100FC0000895FC013196E770C0CF482F2091C201EF
:100FD0009091C30157E0291302C080E0089530E0EA
:100FE000529FF001539FF00D1124EC53FE4F81816D
:100FF000681306C08081481303C085818111EECF3C
:101000002F5F3F4F2770E7CFA4E1B0E0EAE0F8E0C0
:101010000C94001D8C0186E0F801DE011F96019002
:101020000D928A95E1F7F8018481E5809CEFA92E65
:1010300091E0B92E9091000291111AC08823A9F075
:10104000EE2089F0C801CDDDF82E882361F087E01D
:10105000F801D50101900D928A95E1F7C501DEDA1C
:101060005BDF4BDF59C0C80171DDFF24F39454C02E
:10107000C080D18082809380F09001022091FE0197
:101080003091FF01A401421B530BFF2009F4E8C07B
:10109000483C510508F09BC0882309F43DC090915D
:1010A000FD0180910202282F207F09F055C0D9123E
:1010B00014C09091FC01C91210C0E11047C08F709C
:1010C00080618093020219DF8CEF91E03FDD809117
:1010D0000202F8018683F12C1FC0E11037C06D2D8C
:1010E0008C2D73DF6D2D8C2D70DFE82E8111F3CFE9
:1010F000CF86D88A8F859889B8DE292F22952F70C0
:10110000243078F49F70223098F09923A9F0F801E8
:101110009681907F89F4FE2C8F2D6496ECE00C94E0
:101120001C1D2A50223060F0C80110DDEF2CF3CFD7
:10113000992311F0882379F3805E8830A8F7EBCFEC
:10114000803F48F3815F833078F7E5CF80910202DA
:10115000816080930202BFCFD91212C09091FC012E
:10116000C9120EC0E1100CC08683C801EFDC87E015
:10117000F801ACEFB1E001900D928A95E1F771CFE3
:10118000C8012FDD882309F46ECFEE2009F46BCF60
:1011900080910202803280F02091FC013091FD01AB
:1011A000398728879B868A86909100029C871D86B6
:1011B0008E87CE010896CADC87E0F801ACEFB1E07B
:1011C00001900D928A95E1F7A7DE97DE4ECF9091C0
:1011D0000202292F207F89F4682D9A8A898AA60124
:1011E0007A899E2D08DD8CEF91E0B0DC87E0F50177
:1011F00011928A95E9F781DE6ECF882309F48CCFAE
:101200008091FD018D110FC08091FC01C8120BC0AF
:10121000E11009C09683C80199DC87E0F5011192BD
:101220008A95E9F779CFC801DCDC882309F41BCF64
:10123000EE2009F418CF80910202803208F4BCCF6E
:101240002091FC013091FD013A8329839C828B829D
:10125000909100029D831E828F83CE010196ABCFB9
:10126000483C5105A8F5882309F4FFCEFE2CEE205A
:1012700009F4F9CE8091FD018D111EC08091FC0111
:10128000C8121AC08091020280FD0DC0982F907F75
:1012900051F08683903F09F468CF982F907F905F3C
:1012A0008F70892B61CF87E0F801ACEFB1E001903E
:1012B0000D928A95E1F730CFC80193DC81117CCF84
:1012C00080910202816080930202C8013FDC24CF3A
:1012D000682D9A8A898AA6017A899E2D8CDC87E0FE
:1012E000F50111928A95E9F7BCCEAEE0B0E0EBE7EC
:1012F000F9E00C94091D288739874A875B876C873A
:101300007D878E87CE0108967FDE882399F16C85D4
:10131000662339F0288539854A855B857D858E85EC
:1013200074DC17E08091C2019091C301891709F420
:1013300057C0819FC00111248C539E4F65DE8823C6
:1013400009F44EC0E091C2011E9FF0011124EC533C
:10135000FE4F208131814281538164817581868174
:1013600054DC8091C20190E00196877099278093A8
:10137000C201D8CF87E0FE013896DE0111960190B8
:101380000D928A95E1F78C85882359F22091C3014B
:1013900030E0C9010196877099274091C201481732
:1013A000190691F097E0929FD001939FB00D112400
:1013B000AC53BE4FFE01319601900D929A95E1F724
:1013C0008093C30179DDADCFF0DB1092C3011092A1
:1013D000C20187E0ECEFF1E0DF011D928A95E9F7A9
:1013E0002E96E3E00C94251D80910B028695869540
:1013F0008695089580910B028770089590910B0255
:10140000977081E009F480E00895809117020895B3
:1014100090911702892B809317020895982F909529
:101420008091170289238093170208951092170262
:10143000089590911602892B809316020895982F93
:101440009095809116028923809316020895109238
:10145000160208950895FECF089590910C02292F49
:10146000282329F08095892380930C02F4CF0895D6
:101470000895FECF089590910D02292F2823281753
:1014800021F0982B90930D02F4CF089590910D02C6
:10149000292F282329F08095892380930D02E9CFF5
:1014A000089580910D02882321F010920D0280E0B2
:1014B000E0CF08950F931F93CF93DF930091000126
:1014C00010910101C091170280911602C82B8091E2
:1014D0000D02882329F0C82B0E94D4148111E1DF6A
:1014E000F801C083C0910001D091010148E050E0B3
:1014F00063E072E0CE010E94451D892B59F088E01F
:10150000FE01A3E0B2E001900D928A95E1F7CE01D1
:101510000E946714DF91CF911F910F910895CACF58
:1015200008950895FECF08959091510292FF0EC044
:1015300098E0899F90011124622B60930B02ADDB30
:1015400080910B02869586958695ECCFA6CB10925E
:101550000B0280E0E7CF90910B0280958923809366
:101560000B02282F277059F4891749F090915102E6
:1015700092FF05C08695869586959DDBE8CF0895F8
:101580009091510292FB222720F9281749F080FB05
:1015900092F99093510280E592E047D082E0DBCF50
:1015A00008958091510282FB882780F991E0892774
:1015B000E7CF81E0E5CF80E0E3CF60E070E0CB01F2
:1015C000B7C360E070E0CB01ADD3F7CFA3E0B0E0EC
:1015D000ECEEFAE00C940A1D5ED369D31B82CE01B7
:1015E00003967CD381E090E09093C1018093C00189
:1015F00081D31A8219828A81846080618A83CE01B4
:10160000019689D3DEDF2396E2E00C94261DDECF1F
:10161000089553C3089540C3089555C3089564C3FE
:10162000089568C308956BC3089575C3089586C36C
:101630000895A6E0B0E0EFE1FBE00C94081D0E94E5
:1016400049168C0180911802909119028017910718
:1016500081F019821A820E944916682F49815A81A5
:10166000792F80E090E00E94E1021093190200932C
:1016700018022696E4E00C94241D0E9455166093EF
:1016800028027093290280932A0290932B02609380
:1016900024027093250280932602909327020895D6
:1016A00008950895FDCF08950895FEDFFBCF0895B6
:1016B000FECF08950895FEDFFBCF84E09EE08FD437
:1016C000F0DFF3CF81E00895FDCF0895FBCF0895BB
:1016D000089508950895FCDFFCDFFCCF9CDF8111A5
:1016E00001C095DF8CE292E098DF80E592E09BDF1D
:1016F00092D495DFA1DA8091BE019091BF01B5CA65
:101700000E944016D8D3EADF0E94C102D4CFA6E0DF
:10171000B0E0EDE8FBE00C94FE1CD6DF811108C0C0
:1017200088DF2CD70E94C9022696EEE00C941A1D81
:10173000D4D32AE1822E22E0922E640110E0F60139
:10174000E190F1906F01812F04D31F5F153009F4F0
:1017500047C0E816F90699F380912C0281FD02D367
:10176000B5DF782E10E066246394812FF2D27C01DD
:10177000F401A190B1904F018A159B0561F100E041
:10178000CC24C394D12CAE24BF24C5018C219D212F
:10179000892BC1F07720B1F009831A830E94491682
:1017A0009C838B836D8221E0C7018C219D21892B35
:1017B00009F420E049815A816B817C818D81922FCF
:1017C0000E94E1020F5FCC0CDD1C0A30F1F6F4013F
:1017D0003297F182E0821F5F153039F64EDFA1CFDC
:1017E000E816F90609F0B8CF9BCF1F93CF93DF938C
:1017F00018D1EC01C11580E5D807E8F5C11580E4E2
:10180000D80708F099C0C03ED10518F5CD3CD105E8
:1018100008F081C0C83AD10570F4C53AD10508F086
:1018200072C0C130D10511F118F0C430D105F0F407
:10183000D0E0C0E01BC0C33CD105D0F7C85AD0E00F
:10184000CC0FDD1FCF5ADE4F0990D881C02DD46454
:101850000DC0C11580E2D80708F0C7C0C11581E0EE
:10186000D80708F05AC0C83ED10510F7CE01DF9165
:10187000CF911F910895C03682E5D80718F5C0347E
:1018800082E5D80708F066C0C03282E5D80708F0C4
:101890005AC0C11582E5D80708F48FC02C2F2695B1
:1018A000269580E2289F900111248C2F8370C1E03F
:1018B000D0E002C0CC0FDD1F8A95E2F7C22BD32BFC
:1018C000DD68D4CFC03A82E5D80760F4C03882E53D
:1018D000D80708F454C0CF71D0E0DC2FCC27C46FF8
:1018E000D06AC4CFC03C82E5D80708F45BC0C03ED4
:1018F00082E5D80708F09CCFDC2FCC27CC27DF71FE
:10190000C06FD06AB3CFC55AD0E0C957DE4FC88187
:10191000D0E0D064ABCFD065A9CF8D2F26D1182FC2
:10192000CE0199277ED0C12FD0E0DC2FCC27CC2749
:10193000DF71C82BD92B9ACFCE01992772D0CC2733
:10194000DF70D06AF6CFCF71D0E0DC2FCC27C16F2B
:10195000D06A8CCF2C2F26952695277080E2289F61
:10196000900111248C2F8370C1E0D0E002C0CC0F15
:10197000DD1F8A95E2F7DC68C22BD32B77CF2C2FA3
:1019800026952695277080E2289F900111248C2FA0
:101990008370C1E0D0E002C0CC0FDD1F8A95E2F772
:1019A000DA68EACF8C2F8F71E0D0C82FD0E0DC2F1F
:1019B000CC27CC27DF71D06259CF8C2F8F71D5D037
:1019C00055E0D695C7955A95E1F7CF70D0E0DC2F5A
:1019D000CC27282F30E084FF06C044E0220F331FBD
:1019E0004A95E1F73327D069C7CF8D2F8F71BDD0CE
:1019F000182FCE01992715D0C12FD0E0DC2FCC278E
:101A0000CC27DF71906295CF753030F46A3020F4C6
:101A1000462F672F0C94C80190E080E00895F4DF12
:101A2000E4CE82389105B9F1B0F48133910509F41F
:101A30007DC048F48932910509F46DC08A32910560
:101A400009F479C008958533910509F45FC089339D
:101A5000910509F10895833E9105D9F138F4803E4E
:101A6000910529F1823E910579F10895863E91050F
:101A7000D9F1873E910509F43EC0843E910541F5B8
:101A80002091510221FF24C08091500284FD19C091
:101A900087EE90E0089520915002237009F056C01F
:101AA0002091510223FF14C089E290E00895209113
:101AB000500220FD38C03091510230FF09C024FF90
:101AC0003FC090E080E008952091500222FDF7CFC2
:101AD00008952091500222FD36C03091510230FD10
:101AE00035C024FDEECFF4CF2091500223FFF0CF7C
:101AF00024FDE7CFCDCF2091500223FD2AC03091A5
:101B0000510231FFEECF84EE90E008952091500213
:101B100025FDCACF08952091500225FD1DC02091BA
:101B2000510223FFD5CF89E390E008952091500220
:101B300026FD15C008952091500226FD13C008957A
:101B400083EE90E0089582EE90E0089580EE90E0BC
:101B5000089586EE90E0089585E390E008958AE286
:101B600090E0089581E390E0B3CF9091500292FF0E
:101B700010C041E0282F2471243009F040E031E00A
:101B8000282F2871283009F030E0431711F02CE09D
:101B9000822793FF10C041E0282F2471243109F0DF
:101BA00040E031E0282F2871283109F030E0431758
:101BB00011F02CE082273091510230FF10C051E02B
:101BC000282F2171213009F050E041E0282F2871A1
:101BD000283009F040E0541711F029E0822731FF46
:101BE00010C041E0282F2171213109F040E031E09F
:101BF000282F2871283109F030E0431711F029E02F
:101C0000822794FD877E089580E00895CF939C01FC
:101C1000205E3245C1E02032310538F4FB01C58138
:101C2000C11103C08F710E9479028C2FCF9108954A
:101C30009C01FB018581882391F02B35FCE73F0750
:101C400061F02C359CE7390729F02A353C4741F4EF
:101C5000B0DC01C0A6DC80E00895ADDCFCCF81E003
:101C600008959C01FB018581882399F02130FCE7D0
:101C70003F0761F023309CE7390739F021153C47D5
:101C800049F40E94A10280E00895C3DC0E94A502ED
:101C9000FACF81E00895089590E080E00E94631DEE
:101CA00021E0833E9E4F09F020E0822F089563EEED
:101CB0007EEF90E080E00C94821D6FEF7FEF90E06C
:101CC00080E00C94821DCF93DF93EC0182E090E0E2
:101CD0000E945B1D8883DF91CF910895FC01608194
:101CE00082E090E00C94681D83E090E00E945B1D10
:101CF00090E00895682F83E090E00C94681DCF93E6
:101D0000DF93EC0184E090E00E94631D9983888357
:101D1000DF91CF910895FC016081718184E090E0B2
:101D20000C94821DAB01BC018FE090E00C947A1DF5
:101D3000AB01BC0183E190E00C947A1D682F8EE02A
:101D400090E00C94681D0895FECF08950895FECF8D
:101D50000895E82FF0E0EE0FFF1FE45AFD4F808159
:101D600091810895089580EA8A95F1F7089500C059
:101D70000895F9CF0895F894E82FE295EF70F0E018
:101D800031A1282F2F7081E090E001C0880F2A95A3
:101D9000EAF7982F9095932391A392A1892B82A380
:101DA000789408950F931F93CF93DF93C4E9D1E004
:101DB00089918F3F09F0DFDF81E0C939D807C1F78A
:101DC000CAE8D1E004E911E089918F3F09F0D3DF3F
:101DD0000C171D07C9F7DF91CF911F910F9108953F
:101DE000AF92BF92DF92EF92FF920F931F93CF9328
:101DF000DF93EC01062F10E0C8018C569E4F7C014A
:101E0000FC0190819F3F09F449C0D62EF894E92F38
:101E1000E295EF70F0E081A19F7021E030E001C019
:101E2000220F9A95EAF7822B81A382A1209528237D
:101E300022A378949CDFEAE8F1E041E050E0B12C85
:101E4000A12C21912F3FA1F1A22FA295AF70B0E05C
:101E500090968C9190E02F7002C0959587952A9569
:101E6000E2F780FD25C0CA01A82AB92A440F551FF0
:101E700081E0E439F80729F7F70180818F3F09F005
:101E80007ADF61E0A114B10409F460E08D2D71DF07
:101E9000000F111FC00FD11FB982A882DF91CF910F
:101EA0001F910F91FF90EF90DF90BF90AF9008953A
:101EB00090E080E0D9CF76DF8AE0ECE5F2E0DF0168
:101EC000982F1D929A95E9F7E2E5F2E0DF011D9265
:101ED0008A95E9F785E039D037CFAAE0B0E0E3E7AB
:101EE000FFE00C94071D8E010F5F1F4F8AE0F80181
:101EF00011928A95E9F7F12C6F2DC80171DFF394E7
:101F0000F5E0FF12F9CF4AE050E0B80182E592E037
:101F10000E94451D21E0009709F420E0892B41F043
:101F20008AE0F801A2E5B2E001900D928A95E1F70E
:101F300045E06CE572E082E592E008D0182F07DFFB
:101F4000812F2A96E5E00C94231D0895B0E0A0E0CF
:101F5000ECEAFFE00C94041D6C017B01042FC22FFE
:101F6000222371F081E080932F0293D690932E026A
:101F700080932D0280E0CDB7DEB7E8E00C94201D01
:101F8000D0912F02DD23B1F380912D0290912E028A
:101F90000FD60A9778F310E0000F111FA801B601C1
:101FA000C7010E94451D892B31F0A801B601C70168
:101FB0000E94521DCD2F10922F028C2FDCCFA7CB69
:101FC0000895FFD5E7D779DBFDD79ADB0E94EB17A1
:101FD0000E94EE17F4DF0E9404187DDBF9CF909386
:101FE0009B0180939A01089514CB089580E0B1DE9F
:101FF0008170089572DF2FEF89EF90E021508040CB
:102000009040E1F700C0000068DFF0DF882311F0A6
:10201000EBDF7DC60895EECF0895CF93DF93863131
:102020009C47F9F4EB01F1D99D81992389F08A7AD3
:1020300091E009F490E090933002811107C089E2A9
:10204000FDD46DDA80E0DF91CF91089585E3F8CF7C
:1020500080913002811103C089E2F6D4F2CF85E38A
:10206000FCCF81E0F0CFCF93DF93EC01FB018581C2
:10207000882309F4EEC09E0130572332310508F061
:10208000CEC080E592E0CFDAFE01E150F047E232C7
:10209000F10508F026C0E15BFF4E0C94F41CAB1078
:1020A0001B11B3107D108110B7108510BB10C71025
:1020B000911014119510CB109910CF10F7109D109E
:1020C000D310FE10A310D910E1108910BF108D108D
:1020D000C310A710DD10ED10071112117710AF100B
:1020E00022118091500281608093500292C08091B1
:1020F00051028860809351028CC0809150028260AE
:10210000F3CF809150028460EFCF809150028860BD
:10211000EBCF809151028160EDCF809151028260BE
:10212000E9CF809150028061DFCF809150028062C0
:10213000DBCF809150028064D7CF0E94D50580917B
:1021400050028068D1CF809150028860DCCF8091AE
:1021500051028260E0CF809150028E7FC5CF809186
:102160005102877FC7CF809150028D7FBDCF809174
:1021700050028B7FB9CF80915002877FB5CF80917D
:1021800051028E7FB7CF809151028D7FB3CF809166
:1021900050028F7EA9CF809150028F7DA5CF809174
:1021A00050028F7BA1CF0E94D505809150028F777E
:1021B0009BCF80915002877FDCCF809151028D7F31
:1021C000E0CF8091500282FB992790F921E092277D
:1021D00090FB82F990FB83F987CF80915102982F71
:1021E000909591708E7F892B90FB81F983CF909190
:1021F0005002892F8F7B96FF806476CF0E94D50591
:1022000090915002892F97FB87F980586DCF81E01C
:102210000EDA80E592E009DA0E94D50580E0DF91D0
:10222000CF91089580E0F4CF90915002892F8F7E56
:1022300094FF806159CF90915002892F8E7F90FF3B
:10224000816052CF90915102892F877F93FF8860E0
:1022500051CF81E0E4CF282F35EB2303C0011124B7
:1022600097FF04C080589109892F089580589F4F87
:10227000FBCF8091370280FF0DC06091070170E0B5
:10228000660F771F6038710580F56115710579F16A
:10229000862F089581FF07C06091070184E0689F41
:1022A000B0011124EFCF82FF04C06091070188E0E4
:1022B000F6CF209136022223A9F090910601609179
:1022C000070188E0689FB00111242917D8F6269FDE
:1022D000A001279F500D1124692F70E0CA010E94B0
:1022E000E11CD0CF68E070E0D3CF8FE7089581E0A4
:1022F00008958091370280FF0CC06091030170E067
:1023000075956795759567956115710549F1862FE6
:10231000089581FF06C06091030170E0759567958F
:10232000F3CF6091030182FD0BC090913502992398
:10233000A1F06091020180910301961738F0682F97
:1023400070E06038710500F38FE70895899FC00140
:10235000112470E00E94E11CF4CF61E070E0D7CF5F
:1023600081E008958D3C29F484DF819580933B02C0
:1023700008958E3C11F47DDFF9CF8F3C29F479DF8D
:10238000819580933A020895803D11F472DFF9CF70
:10239000893D21F4AEDF80933C0208958A3D19F413
:1023A000A8DF8195F8CF8B3D29F4A3DF8195809339
:1023B0003D0208958C3D11F49CDFF9CF9FE2980F08
:1023C000983070F4815D990B21E030E001C0220F5C
:1023D0008A95EAF780913902822B80933902089519
:1023E0008D3D31F4809137028160809337020895EA
:1023F0008E3D21F4809137028260F7CF8F3DB9F78F
:10240000809137028460F1CF8D3CD9F490913B02EA
:1024100097FF1DC010923B0280913A02811106C0C5
:1024200080913B02811102C01092360280913C02E1
:10243000811106C080913D02811102C010923502C7
:1024400008958E3CD9F490913B0219161CF39FE23B
:10245000980F983008F03FC0815D990B21E030E083
:10246000A90102C0440F551F8A95E2F7CA01809561
:1024700090913902892380933902CECF90913A020C
:102480008F3C29F497FFE3CF10923A02C5CF803DED
:1024900019F41916CCF3DBCF90913C02893D29F455
:1024A0001916ACF610923C02B7CF8A3D19F497FF8B
:1024B000CECFF8CF8B3D39F490913D0297FFC7CF37
:1024C00010923D02A9CF8C3D09F0C1CF90913D0201
:1024D0001916B4F3BCCF8D3D31F4809137028E7F55
:1024E0008093370299CF8E3D21F4809137028D7F02
:1024F000F7CF8F3D09F090CF809137028B7FF0CFDF
:10250000C8D320913A02211104C020913B0222231A
:1025100021F0909334028093330220913C022111E8
:1025200004C020913D02222321F090933202809337
:10253000310288E392E0D8C186E0E8E3F2E0DF010F
:102540001D928A95E9F71092360210923502109288
:1025500037020895FC01828181110EC083818111AF
:102560000BC08481811108C091E08581811101C077
:1025700090E0892F8170089581E0FCCFA6E0B0E063
:10258000E4ECF2E10C94091D86E0E8E3F2E0DE0100
:10259000119601900D928A95E1F710923A021092ED
:1025A0003B0210923C0210923D028B81811103C0CC
:1025B0008C81882381F08091330290913402F8D28B
:1025C000AC01909136029923B9F1809108018417EA
:1025D000150608F43EC08D81811103C08E818823C9
:1025E00089F08091310290913202E2D2AC01909157
:1025F0003502992309F463C08091040184171506FC
:1026000008F46BC0BE016F5F7F4F88E392E02DD26C
:10261000811104C088E392E09DDF811171DF86E0C3
:10262000FE013196A8E3B2E001900D928A95E1F7A0
:102630002696E3E00C94251D209109018AE0289F4D
:10264000900111242417350730F69F5F90933602CE
:1026500002C09F3FD1F71B81112351F00ADE9FEF8B
:1026600011160CF491E0899F802D112480933A0279
:102670001C81112351F0FDDD9FEF11160CF491E048
:10268000899F802D112480933B0280913A028823F8
:1026900009F4A1CF10913B02112309F49CCFDBDD9B
:1026A000882349F080933A02812FD5DD882329F0D1
:1026B00080933B0290CF81E0F5CF81E0F9CF20916C
:1026C00005018AE0289F900111242417350708F09E
:1026D00099CF9F5F9093350202C09F3FD1F71D8134
:1026E000112351F006DE9FEF11160CF491E0899F43
:1026F000802D112480933C021E81112351F0F9DDBD
:102700009FEF11160CF491E0899F802D1124809386
:102710003D0280913C02882309F474CF10913D0260
:10272000112309F46FCF97DD882349F080933C0291
:10273000812F91DD882329F080933D0263CF81E0D2
:10274000F5CF81E0F9CF0F931F93CF93DF93C42F81
:10275000D22FFC0185818823C1F04093400299D299
:1027600090933F0280933E0280E28C0F883040F4C9
:10277000C77081E001C0880FCA95EAF70E94AE03D6
:10278000DF91CF911F910F91089510914002141382
:1027900031C080913E0290913F020AD2883C91055F
:1027A00048F5C0E2CD0F1D17B9F080E2810F8830E7
:1027B00040F4177081E001C0880F1A95EAF70E9473
:1027C000B303C83010F581E09D2F977001C0880FCA
:1027D0009A95EAF70E94AE03802F0E94A703C830A3
:1027E00078F6D77081E001C0880FDA95EAF70E9489
:1027F000B303C6CF80E28C0F883010F6C77081E03B
:1028000001C0880FCA95EAF7F2CF802F0E94A70374
:10281000B7CF0F93FC01E851FC47E730F10508F012
:1028200039C0CB01EA5EFB4E0C94F41C2C1432141C
:102830001D14261438143E14441406E221EE41EE11
:102840006AE17CE780DF80E00F91089507E225EEE2
:1028500045EE6BE17CE7F6CF06E221EE40EE68E163
:102860007CE7F0CF07E225EE44EE69E17CE7EACFB2
:1028700006E221EE42EE6CE17CE7E4CF07E225EED2
:1028800046EE6DE17CE7DECF08E221E045EE6EE149
:102890007CE7D8CFFB018581882319F01092400294
:1028A000D3CF81E0D1CF9093460280934502089523
:1028B000E0914502F0914602309739F00190F081A5
:1028C000E02D309711F00995089580E00895E0918A
:1028D0004502F0914602309731F00280F381E02DFD
:1028E000309709F009950895E0914502F09146026C
:1028F000309759F026813781232B39F022E0DC0113
:102900002C930680F781E02D09950895A3E0B0E0AF
:10291000ECE8F4E10C940A1D20914302309144024A
:1029200028173907B1F09093440280934302E09155
:102930004502F0914602309761F00084F185E02D68
:10294000309739F023E029839B838A83CE01019657
:1029500009952396E2E00C94261DA3E0B0E0E3EB9A
:10296000F4E10C940A1D2091410230914202281793
:102970003907B1F09093420280934102E091450201
:10298000F0914602309761F00084F185E02D309798
:1029900039F024E029839B838A83CE01019609952F
:1029A0002396E2E00C94261DE0910001F0910101D4
:1029B000329697E080E0915009F408952191222306
:1029C000D1F38F5FF8CF882371F02091000130910F
:1029D0000101F9013296285F3F4F9191981729F034
:1029E000E217F307D1F780E0089581E008959C0194
:1029F000FC0132969FEF80E04191461751F09F3FD6
:102A000019F4411101C0982F8F5F8630A9F79F3FBD
:102A100009F40895290F311D97FD3A95F901628354
:102A20000895FC01329608962191261303C0DF0118
:102A300011971C92E817F907B9F70895682F80914C
:102A4000000190910101D3CF682F809100019091F6
:102A50000101E7CFE0910001F0910101329686E09B
:102A6000DF011D928A95E9F70895DC01FB011196BB
:102A70009C9111978181981322C012968C91129784
:102A8000882319F0928189131AC013968C91139799
:102A9000882319F09381891312C015968C9115978C
:102AA000882319F0958189130AC014969C91992363
:102AB00021F081E02481291303C080E001C081E07E
:102AC000817008950895FECF089581110CC081E0B2
:102AD00080930D0160910A0170910B0180910C01AE
:102AE00090910D01F0CF82E0F3CF83E080930D0150
:102AF00060910A0170910B0180910C0190910D0180
:102B0000E2CFE3CF089581E080930D0160910A0147
:102B100070910B0180910C0190910D01D4CFF3CFF6
:102B2000089591E0811101C090E090930C016091B3
:102B30000A0170910B0180910C0190910D01C3CF9E
:102B400080910C01089580930B0160910A017091AE
:102B50000B0180910C0190910D01B5CF80910B017B
:102B6000089580930A0160910A0170910B01809190
:102B70000C0190910D01A7CF80910A01089508954D
:102B80000895FECF089508950895F9CF0895CF933D
:102B9000FADFA3D9F9DFC0E08C2FDBD8892B31F421
:102BA000CF5FC530C9F780E0CF91089581E0FCCFB9
:102BB000CF93DF93EC016DD08C1B9D0BDF91CF91F8
:102BC000089585B7806885BF85B7806885BF0895FB
:102BD0001F920F920FB60F9211248F939F93AF9372
:102BE000BF9380914702811113C08091660290913A
:102BF0006702A0916802B09169024196A11DB11DC2
:102C00008093660290936702A0936802B093690272
:102C1000BF91AF919F918F910F900FBE0F901F901A
:102C2000189580916E02843031F10E94A9021092B1
:102C3000470288E190E020E40FB6F894A8958093CD
:102C400060000FBE2093600083B7817F846083BFE4
:102C500083B7816083BF7894889583B78E7F83BF65
:102C60000FB6F894A8958091600088618093600009
:102C7000109260000FBE08950E94D5050C94AD021D
:102C800082E084BD93E095BD9AEF97BD80936E007E
:102C900008952FB7F8948091660290916702A091F1
:102CA0006802B09169022FBF08952FB7F894609120
:102CB00066027091670280916802909169022FBF4D
:102CC000089578941F920F920FB60F9211248F934C
:102CD0009F93AF93BF938091660290916702A091FA
:102CE0006802B09169020196A11DB11D8093660230
:102CF00090936702A0936802B0936902BF91AF916D
:102D00009F918F910F900FBE0F901F90189587E79E
:102D100097E7909301088093000888E19AE00FB646
:102D2000F894A895809360000FBE90936000FFCF49
:102D300088E19AE00FB6F894A895809360000FBEE2
:102D400090936000FFCF08959B0190916E029430A4
:102D5000E9F48F708093E9008FEF9091E800815043
:102D600095FD06C095ED9A95F1F700008111F5CF1C
:102D70008091E80085FF0AC0BA01C90150E040E037
:102D8000B5D18091E8008E778093E800089543E004
:102D900050E0BC0182E0D8CF46E050E0BC0182E0C8
:102DA000D3CFCF93DF93EC01CBDE48E050E0BE0100
:102DB00081E0CADF88E0FE01A8E4B2E001900D9254
:102DC0008A95E1F7DF91CF91089580916D0281118D
:102DD00007C01AD371D38091E20084608093E2002F
:102DE000089510926D0208958EDE81E09ACE609172
:102DF0006A0281E0611101C080E077CE90916E029D
:102E000081E0943009F080E060916A027ACE42E07D
:102E100061EC81E077D242E261EC82E073D2909182
:102E20006E0281E0943009F080E060916A024DCE3C
:102E300080917002833009F461C030F48130D9F19F
:102E4000823009F497C008958A3009F486C08B3027
:102E500009F46EC0893009F050C080916F02813250
:102E600009F04BC08091730290917402029708F0B0
:102E700044C08091E800877F8093E8008091E8005B
:102E800082FF37C08091F3009091F2008927982744
:102E90008927029731F48091F100813011F086305A
:102EA00019F48091F1004FDE8091E8008B778093D8
:102EB000E8005CD222C080916F02813AF1F48091E7
:102EC000E800877F8093E8008091730290917402FC
:102ED000892B59F468E088E492E070E054D1809145
:102EE000E8008B778093E800089560E090E080E050
:102EF000F4CF80916E028111C1CF089580916F024D
:102F0000813AD9F78091730290917402892BA9F7C5
:102F10008091E800877F8093E8008091E80080FF3F
:102F2000FCCF0EDE8093F1008091E8008E77BFCF5A
:102F300080916F02813209F780917302909174023F
:102F4000892BD9F68091E800877F8093E8000ED224
:102F500080917102E6DD0C94D50580916F0281327B
:102F600061F68091E800877F8093E800FFD180912F
:102F70007202F7CD80916F02813A09F0BECF809145
:102F8000E800877F8093E8008091E80080FFFCCF15
:102F9000F3DDC8CF84B7877F84BF0FB6F894A895B8
:102FA00080916000886180936000109260000FBE85
:102FB00080E890E00FB6F8948093610090936100F0
:102FC0000FBEADCD21D278D2E2EEF0E080818460F8
:102FD00080837894DBC48EE091E065CC80916E02B2
:102FE000853029F480916E02853011F045CE089528
:102FF00018DECDDD8823B1F380916C02882391F334
:103000005FD00E94D505EECF08959A0140917502D8
:103010005091760200C0492F55274330510571F178
:1030200058F441305105E9F04230510511F190E07A
:1030300080E050E040E019C04132510591F1423248
:103040005105A9F784E490E048ED52E0611571055F
:1030500061F08BE790E04DE552E06130710529F0B9
:10306000E6CF82E190E04BE452E0F90151834083E6
:1030700008958BE390E040E152E0F7CF992781304B
:10308000910561F028F0029791F6E8EDF1E002C0B9
:10309000ECE0F2E0849190E0AF01E7CFECEEF1E0FC
:1030A000F9CF89E090E042E252E061157105E9F262
:1030B00089E090E04BE352E061307105B1F2B7CFA7
:1030C00080E189BD82E189BD09B400FEFDCF809118
:1030D000D8008F7D8093D8008091E000826080933B
:1030E000E0008091E00081FDFCCF0895AF92BF9297
:1030F000CF92DF92FF920F931F93CF93DF936C01D8
:10310000EB018A0152D1F82E811123C0011511055E
:1031100039F0F80180819181C81BD90BC80ED91EE6
:10312000B12CA12C2097A9F08091E80085FD21C049
:103130008091E8008E778093E80001151105A1F0D9
:10314000F80180819181A80EB91EB182A08285E02C
:10315000F82E8F2DDF91CF911F910F91FF90DF906F
:10316000CF90BF90AF90089520D18823D9F2F82E48
:10317000F0CFF60181916F018093F1002197FFEF6D
:10318000AF1ABF0ACFCFFC018091750290917602F1
:1031900086179707A0F06115710529F49091E80052
:1031A0009E779093E80090E06115710551F49111BC
:1031B00008C08091E80082FF35C080E00895BC011E
:1031C000F2CF80916E028823C9F18530C9F18091D8
:1031D000E80083FD31C08091E80082FDEACF809154
:1031E000E80080FFE1CF2091F3008091F200322FC0
:1031F000282F6115710519F02830310558F091E03C
:103200002830310509F090E02091E8002E772093D6
:10321000E800CACF81918093F100615071092F5F5E
:103220003F4FE7CF80916E02882341F0853041F017
:103230008091E80083FFBDCF81E0089582E008958A
:1032400083E00895FC0180917502909176028617C3
:103250009707A0F06115710529F48091E8008E7739
:103260008093E80090E06115710551F4911108C058
:103270008091E80082FF36C080E00895BC01F2CF63
:1032800080916E028823D1F18530D1F18091E800E0
:1032900083FD32C08091E80082FDEACF8091E80092
:1032A00080FFE1CF2091F3008091F200322F282F90
:1032B0006115710519F02830310558F091E028307A
:1032C000310509F090E08091E8008E778093E80066
:1032D000CACF84918093F1003196615071092F5FBC
:1032E0003F4FE6CF80916E02882341F0853041F058
:1032F0008091E80083FFBCCF81E0089582E00895CB
:1033000083E00895982F973028F08F708093E9001C
:1033100081E008959093E900242F762F50E09817CC
:1033200031F07091EC002091ED005091F00021FD02
:1033300002C09F5FE8CF3091EB003E7F3093EB00FF
:103340003091ED003D7F3093ED003091EB00316026
:103350003093EB007093EC002093ED005093F0005D
:103360002091EE0027FDE5CF80E0089580916F0267
:1033700087FF13C08091E80082FF06C08091E800BB
:103380008B778093E80004C080916E028111F2CFA8
:10339000089580916E028823D9F38091E80080FF20
:1033A000F8CF8091E8008E77ECCF2091E400309147
:1033B000E50085E69091EC0090FF06C09091E80052
:1033C00090FF06C080E008959091E80092FDFACF4A
:1033D00090916E02992391F0953091F09091EB00CD
:1033E00095FD10C04091E4005091E5002417350789
:1033F00009F381509A01F1F684E0089582E008957E
:1034000083E0089581E0089567D06ED0E0EEF0E0AB
:10341000808181608083E8EDF0E080818F77808318
:1034200019BCA7EDB0E08C918E7F8C9380818F7E4C
:10343000808310926D0208950F931F93CF93DF93B3
:103440004BD052D0C8EDD0E088818F7788838881B7
:103450008068888388818F7D888319BC10926E0272
:1034600010926A0210926C0210926B0200EE10E051
:10347000F80180818B7F808388818160888342E02E
:1034800060E080E03FDFE1EEF0E080818E7F8083CE
:10349000E2EEF0E0808181608083808188608083BB
:1034A000F80180818E7F8083888180618883DF91AD
:1034B000CF911F910F910895E8EDF0E080818F7E0C
:1034C0008083E7EDF0E080818160808384E082BFCB
:1034D00081E080936D02B0CFE8EDF0E080818E7FD7
:1034E00080831092E20008951092DA001092E100B9
:1034F00008951F920F920FB60F9211242F933F93AE
:103500004F935F936F937F938F939F93AF93BF93EB
:10351000EF93FF938091E10082FF0AC08091E20067
:1035200082FF06C08091E1008B7F8093E1002DD265
:103530008091DA0080FF18C08091D80080FF14C00D
:103540008091DA008E7F8093DA008091D90080FF2D
:103550008FC080E189BD82E189BD09B400FEFDCF45
:1035600081E080936E0231DC8091E10080FF18C021
:103570008091E20080FF14C08091E2008E7F8093F2
:10358000E2008091E20080618093E2008091D800A7
:1035900080628093D80019BC85E080936E0227DC9E
:1035A0008091E10084FF28C08091E20084FF24C064
:1035B00080E189BD82E189BD09B400FEFDCF809123
:1035C000D8008F7D8093D8008091E1008F7E80931A
:1035D000E1008091E2008F7E8093E2008091E20022
:1035E00081608093E20080916A02882309F445C0DB
:1035F00084E080936E0202DC8091E10083FF27C0AB
:103600008091E20083FF23C08091E100877F809357
:10361000E10082E080936E0210926A028091E100E4
:103620008E7F8093E1008091E2008E7F8093E200A4
:103630008091E20080618093E20042E060E080E0FF
:1036400061DE8091F00088608093F000CDDBFF9117
:10365000EF91BF91AF919F918F917F916F915F910A
:103660004F913F912F910F900FBE0F901F90189583
:1036700019BC10926E02B5DB77CF8091E30087FD15
:1036800002C081E0B6CF83E0B4CF1F920F920FB695
:103690000F9211242F933F934F935F936F937F93D8
:1036A0008F939F93AF93BF93CF93EF93FF93C0916B
:1036B000E900CF708091EC001092E9008091F00059
:1036C000877F8093F00078941BD01092E90080915E
:1036D000F00088608093F000C093E900FF91EF91C3
:1036E000CF91BF91AF919F918F917F916F915F919A
:1036F0004F913F912F910F900FBE0F901F901895F3
:10370000AAE2B0E0E5E8FBE184C1EFE6F2E08091F7
:10371000F100819322E0E737F207C9F789DB809156
:10372000E80083FF43C080916F02909170029A304D
:1037300008F03CC0E92FF0E0E156F44E55C1A91B5A
:10374000CF1BD61BCF1BD61B251C461CD61B9A1C79
:10375000A71C803889F0823849F5809173028F70F8
:10376000873020F58093E9008091EB0085FB882766
:1037700080F91092E90006C080916B0290916C0272
:10378000911182609091E800977F9093E800809378
:10379000F1001092F1008091E8008E7726C0282F6A
:1037A0002D7F21F4882399F0823019F18091E8006F
:1037B00083FF0AC08091E800877F8093E8008091B2
:1037C000EB0080628093EB00AA96E3E03EC180911B
:1037D0007102813059F7933009F080E080936C02D8
:1037E0001092E9008091E800877F8093E800BEDDB9
:1037F000DDCF809171028111F3CF809173028F70C0
:103800002FEF280F263090F68093E9002091EB00EF
:1038100020FFE6CF933031F48091EB0080628093FB
:10382000EB00DECF9091EB0090619093EB0021E0F4
:1038300030E001C0220F8A95EAF72093EA00109247
:10384000EA008091EB008860EACF8111AFCF109140
:1038500071021F778091E3008078812B8093E300D1
:103860008091E800877F8093E80080DD8091E80008
:1038700080FFFCCF8091E30080688093E30083E0C9
:10388000111101C082E080936E0290CF8058823087
:1038900008F08CCF80917102909172028C3D23E0F0
:1038A000920799F583E08A838AE289834FB7F89477
:1038B000DE01139620E03EE051E2E32FF0E050936A
:1038C0005700E49120FF03C0E295EF703F5FEF7077
:1038D0008E2F90E0EA30B8F0C7968D939D932F5FBE
:1038E000243159F74FBF8091E800877F8093E8002B
:1038F0006AE270E0CE01019646DC8091E8008B77A9
:103900008093E80053CFC096E8CF60917302709126
:103910007402AE014F5F5F4F78DBBC01892B09F465
:1039200045CF9091E800977F9093E80089819A8134
:1039300089DCE3CF803809F039CF8091E800877FB8
:103940008093E80080916A028093F10024CF811176
:103950002DCF90917102923008F028CF8091E8002D
:10396000877F8093E80090936A0200DD80916A026D
:10397000882329F084E080936E0249DA17CF809182
:10398000E30087FDF7CF81E0F6CF0895CF938091D4
:103990006E02882391F0C091E900CF708091EC0015
:1039A00080FD0DC080E0C82B1092E9008091E800F6
:1039B00083FDA6DECF70C093E900CF91089580E823
:1039C000F2CF97FB072E16F4009406D077FD08D0AF
:1039D00048D007FC05D03EF4909581959F4F0895FF
:1039E000709561957F4F0895EE0FFF1F0590F4913C
:1039F000E02D09942F923F924F925F926F927F92A7
:103A00008F929F92AF92BF92CF92DF92EF92FF92EE
:103A10000F931F93CF93DF93CDB7DEB7CA1BDB0B9A
:103A20000FB6F894DEBF0FBECDBF09942A8839883F
:103A300048885F846E847D848C849B84AA84B98446
:103A4000C884DF80EE80FD800C811B81AA81B98152
:103A5000CE0FD11D0FB6F894DEBF0FBECDBFED0166
:103A60000895AA1BBB1B51E107C0AA1FBB1FA617C5
:103A7000B70710F0A61BB70B881F991F5A95A9F717
:103A800080959095BC01CD010895FB01DC0104C037
:103A90008D910190801921F441505040C8F7881B46
:103AA000990B0895FB01DC0102C001900D92415079
:103AB0005040D8F70895F999FECF92BD81BDF89A8C
:103AC000992780B50895A8E1B0E042E050E020C019
:103AD000262FF999FECF92BD81BDF89A019700B4C7
:103AE000021639F01FBA20BD0FB6F894FA9AF99A67
:103AF0000FBE08950396272FECDFEADF252FE9DFBD
:103B0000242FE7CF0196272FE4DFE2CFDC01CB01A2
:103B1000FC01F999FECF06C0F2BDE1BDF89A3196DD
:103B200000B40D9241505040B8F70895F894FFCF7B
:103B30000E02280850011E0A140100000100AE15F3
:103B4000D116A316CC16C716E200E900EA00B500AC
:103B5000B600B700CD008301CC008A019201940128
:103B60002102230224022502260227022A02B30090
:103B7000B4006F0070009F01CB019F02A002818200
:103B800083E200E900EA00B500B600B700CD00838B
:103B900001CC008A01920194012102230224022512
:103BA00002260227022A02B300B4006F0070009FB1
:103BB00001CB019F02A0028182836697C63435360D
:0A3BC000323331F793929190940094
:00000001FF
